:0A0000000C941C010C9400000C94F9
:10000A0000000C9400000C9400000C9400000C9466
:10001A0000000C9400000C9404030C9400000C944F
:10002A0000000C9489020C9400000C9400000C94BB
:10003A0000000C9400000C9400000C9400000C9436
:10004A0000000C9400000C9400002C001027E80318
:10005A0064000A0001000010000110000100000005
:10006A00000000000000000000002B383431363652
:10007A003536333431373600010001007175617449
:10008A0064656E0067696F00636F69006F6E6F6603
:10009A006600656E6469730041540D0A0041542B71
:1000AA00434D47463D310D0A0041542B434E4D49BD
:1000BA003D312C322C302C302C300D0A0041542B7F
:1000CA00434D47533D222573220D0A0025730044F0
:1000DA002E4B4849454E2054484945542042490030
:1000EA002020202053494D38303041202020202024
:1000FA0000496E697469616C697A696E672E2E2E81
:10010A0000436F6E6669677572696E670053494D81
:10011A00383030412E2E2E00446F6E65004E6F72BD
:10012A006D004B686F690043616E682062616F20E1
:10013A006B686F6900476173200043616E682062D3
:10014A00616F20676173005174202044656E2047F7
:10015A00696F004F4646004F4E2000436F2074726D
:10016A006F6D210042757A7A000080C0010002009A
:10017A0068000A0004006A000D00EB017400010027
:10018A005E02820001005F028400040060028600B1
:10019A00030065028A00030069028E0003006D02F3
:1001AA009200020071029600030074029800020095
:1001BA0078029C0003007B029E0011006001D900B6
:1001CA0011007101EA0010008201FB000C0092018B
:1001DA000B010B009E0117010500A9012201050070
:1001EA00AE0127010500B3012C010500B8013F014A
:1001FA000C00BD0151010400C9015D010400CD01DB
:10020A0061010400D1015D010400D501610104000E
:10021A00D9015D010400DD0161010500E101F6007B
:10022A000500E6016E010200EC0274010000F89478
:10023A00EE27ECBBF1E0FBBFEBBFE5BF8DE0A2E030
:10024A00BB27ED938A95E9F780E094E0A0E6ED9369
:10025A000197E9F7E6E7F1E085919591009761F05A
:10026A00A591B59105901590BF01F00105900D92E9
:10027A000197E1F7FB01F0CFEFE5EDBFE4E0EEBF58
:10028A00C0E6D1E00C945903E2EAF0E00E940108CA
:10029A00E7EAF0E00E940108E3EBF0E00E940108BF
:1002AA000895BA93AA93E7ECF0E0FA93EA93EC8103
:1002BA00FD810E940B08A8ECB0E00E940009E6ED5F
:1002CA00F0E0FA93EA93EA81FB810E940B08AAE123
:1002DA000E94E8040C940C070E9414080E94190852
:1002EA000E94E2068F01002E012A11F0E1E001C00E
:1002FA00E0E019810881269608951A9310E01436D1
:10030A0040F4E12FF0E0ED57FD4FA0E0A0831F5F1E
:10031A00F6CFE0E0E093E70210E01F3040F4E12F6F
:10032A00F0E0E95EFD4FA0E0A0831F5FF6CF10E08A
:10033A001E3140F4E12FF0E0EA5DFD4FA0E0A0831A
:10034A001F5FF6CF199108950E941F0930E004E05B
:10035A0010E00131E0E01E0750F4E32F3F5FF0E0C8
:10036A00E95EFD4F0E9420080F5F1F4FF2CF30E079
:10037A000EE210E0E091E702F0E032970E171F0755
:10038A0050F4E32F3F5FF0E0EA5DFD4F0E94200842
:10039A000F5F1F4FEFCF00E010E0E32FD801F0E02E
:1003AA00AE17BF07C0F4A6E2B2E0A00FB11FAC912E
:1003BA00A13438F0A6E2B2E0A00FB11FAC91AB3580
:1003CA0008F006C0D801AA5DBD4FEC91E05EEC933F
:1003DA000F5F1F4FE2CFE6E2F2E00E942908042EE7
:1003EA00052A09F48CC00E94310819F00E943908C4
:1003FA0009F404C0E1E0E0935A027CC00E9431088B
:10040A0019F00E94410809F404C0E0E0E0935A029E
:10041A0071C00E94490819F00E94390809F404C001
:10042A00E1E0E0935B0266C00E94490819F00E946D
:10043A00410809F404C0E0E0E0935B025BC00E945B
:10044A00510819F00E94390809F404C0E1E0E09368
:10045A005C0250C00E94510819F00E94410809F438
:10046A0004C0E0E0E0935C0245C00E94510819F024
:10047A000E94590809F406C0E0E0E0935E02E093A6
:10048A005C0238C00E94510819F00E94610809F400
:10049A0004C0E1E0E0935E022DC00E94690819F0F1
:1004AA000E94390809F404C0E1E0E0935D0222C029
:1004BA000E94690819F00E94410809F404C0E0E0AA
:1004CA00E0935D0217C00E94690819F00E9459085A
:1004DA0009F406C0E0E0E0935F02E0935D020AC01F
:1004EA000E94690819F00E94610809F403C0E1E05A
:1004FA00E0935F02E0E0F0E00E94290870CFFDDEA1
:10050A000E9426090C944E070A921A92FA926A934A
:10051A007A938A939A93AA93BA93EA93FA93EFB740
:10052A00EA931A930A931BB10CB1E12FEC7109F00B
:10053A0056C00B3211F4552009F003C0E1E05E2EDB
:10054A001CC0033419F4E1E0E51509F003C0E2E048
:10055A005E2E13C00D3419F4E2E0E51509F003C06C
:10056A00E3E05E2E0AC0043519F4E3E0E51509F06C
:10057A0003C0E4E05E2E01C05524E4E0E51531F441
:10058A00E0E0E093E702E1E04E2E5524E1E0E415D5
:10059A0099F4E091E702EF5FE093E702E150F0E0BF
:1005AA00ED57FD4F00830A3009F47394E2E0E71532
:1005BA0019F444247724C8DEA091E702A43619F47A
:1005CA00E0E0E093E702A091E902AF5FA093E902BD
:1005DA00A43629F4E0E0E093E902689420F809914E
:1005EA001991E991EFBFF991E991B991A99199917D
:1005FA00899179916991F990199009901895AA931E
:10060A00BA93EA93FA93EFB7EA93EAECEDBDE0E026
:10061A00ECBDE0915902EF5FE0935902A0915902B3
:10062A00A73028F0E0E0E0935902E1E0CE2EE09115
:10063A007F02F0918002309769F00E9471080E944F
:10064A007908A037E7E1BE0728F0E0E0E0937F02EF
:10065A00E0938002E0918102F0918202309779F072
:10066A000E947E08A0918102B0918202A037E7E140
:10067A00BE0728F0E0E0E0938102E0938202E9916C
:10068A00EFBFF991E991B991A9911895AA93E881D7
:10069A00E7B985E28A95F1F7369A349BFECF349A08
:1006AA00E4B1F5B10C94FF07E0E0EABBEBBBE7BBB2
:1006BA00E8BBEFEFE4BBE0E0E5BBE0EEE1BBE0E086
:1006CA00E2BBE3BFE2BFECBFEFBDE2E0EEBDEAECA6
:1006DA00EDBDE0E0ECBDE7BDE6BDEBBDEABDE9BDC1
:1006EA00E8BDE2BDE5BDE4BDE3BDE4E0E9BFE0E0AD
:1006FA00E5BFE4BFEBB9E8E9EAB9E6E8E0BDE0E066
:10070A00E0BDE7E4E9B9E0E8E8B9E0E0E7B9E4E840
:10071A00E6B9E0E0E0BFEDB9E6BFA0E10E94D1078B
:10072A0078940E948608A0E6B1E00E948B08A1E7AF
:10073A00B1E00E94C007A0EDB7E00E949208A2E8CB
:10074A00B1E00E94C007A8E9BAE30E949208A2E9B0
:10075A00B1E00E948B08AEE9B1E00E94C00794DDC7
:10076A00CCDDEBE00E949708A9EAB1E00E94C0073D
:10077A00A8EEB3E00E9400090E949207829910C075
:10078A00829BFECFA0915A02A13011F4E0E005C08D
:10079A00E0915A02E03019F4E1E0E0935A0211C004
:1007AA0083990FC0839BFECFA0915B02A13011F405
:1007BA00E0E005C0E0915B02E03019F4E1E0E0938B
:1007CA005B02CC2009F46FC0E0915802EF5FE0931E
:1007DA005802A0E05BDF5F018A149B0408F445011C
:1007EA00A0915802AE3108F457C0E0E0E0935802F5
:1007FA00E6E9F0E08E169F0640F4DD240E949B088D
:10080A00AEEAB1E00E94C00745C0E6E9F0E08E1604
:10081A009F0628F0ECE2F1E08E169F0608F002C06F
:10082A00DD2009F018C0E1E0DE2E0E949B08A3EB50
:10083A00B1E00E94C007E0915E02E03021F00E9420
:10084A007908109709F006C00E94A008E1E3F1E0D8
:10085A000E94A8081FC0ECE2F1E08E169F0610F075
:10086A00DD2009F017C0E2E0DE2E0E949B08A8EB0B
:10087A00B1E00E94C007E0915E02E03021F00E94E0
:10088A007908109709F006C00E94A008E4E4F1E094
:10089A000E94A80888249924B09B02C0662402C03A
:1008AA00E1E06E2ECC240E948608ADEBB1E00E94F6
:1008BA00C007E0915A02E03049F4E0E00E9497084C
:1008CA00A9ECB1E00E94C00796980CC0A0915A0208
:1008DA00A13041F4E0E00E949708ADECB1E00E943B
:1008EA00C007969AE0915B02E03049F4E4E00E9486
:1008FA009708A1EDB1E00E94C00795980CC0A0919D
:10090A005B02A13041F4E4E00E949708A5EDB1E052
:10091A000E94C007959AE0915C02E03049F4E8E051
:10092A000E949708A9EDB1E00E94C00797980CC0F1
:10093A00A0915C02A13041F4E8E00E949708ADED75
:10094A00B1E00E94C007979AE1E0E61551F4A09140
:10095A008102B0918202109721F4E0915F02E030A7
:10096A0009F418C0E1E0E0935D02E9EFF1E0FA93DF
:10097A00EA93E5E6F1E0FA93EA9380E00E946506DD
:10098A002496EBEEF1E0FA93EA93A9EFB1E089DC61
:10099A000E947E08E0915D02E03039F4A898ECE00C
:1009AA000E949708A1EEB1E00AC0A0915D02A130B1
:1009BA0041F4A89AECE00E949708A6EEB1E00E94E2
:1009CA00C007DCCEFFCFAA935D9BFECFE881ECB9CE
:1009DA000C94FF07BA93AA93AA81F5DFA881B9817B
:1009EA000E94B7080C94CF070E941408AA81BB8101
:1009FA0012960E941209309729F1AA81BB81149696
:100A0A000E9412098F01309761F00230E0E01E0760
:100A1A0080F0F80131978F01AA81BB811496ED937A
:100A2A00FC93AA81BB8112960E94B7083197AC81C8
:100A3A00A083AA81BB810E941209FF2312F00E949F
:100A4A00B70806C0AA81BB81EFEFFFEFED93FC93D5
:100A5A001981088125960895BA93AA9326970E9428
:100A6A001F0910E0AC85BD85E0E0F0E0ED93FC9352
:100A7A00EA89FB893196EA8BFB8B3197E4912E2F19
:100A8A00E03009F415C1E12FE03039F4253211F4D0
:100A9A0011E002C00E94BD080AC1E130A9F4253262
:100AAA0019F40E94BD0802C112E040E000E02D32B4
:100ABA0011F401E0FCC02B3211F44BE2F8C02032F1
:100ACA0011F440E2F4C002C0E23039F450E013E01D
:100ADA00203311F40068EBC003C0E33009F0E7C02B
:100AEA00203310F02A3308F007C0AAE05A9F502D8D
:100AFA00E22FE0535E0FDBC0E22FE33649F40E9497
:100B0A00C408E889F989A481AA930E94CA08CEC0B8
:100B1A00E33741F40E94C4080E94D0080E94B2063A
:100B2A001E2F0AC0E03761F40E94C4080E94D00850
:100B3A000E94BE061E2F086002600F7730E034C0A4
:100B4A00E43611F0E93611F4046002C0E53731F4F5
:100B5A00E6E5F0E0EE83FF8315E00CC0E83511F41A
:100B6A00086003C0E83709F0A1C0E0E6F0E0EE83D0
:100B7A00FF8314E002FF14C00E94C4080E94DA082E
:100B8A00AB85AA233AF4EA85FB850E940E09EA8717
:100B9A00FB874DE2403011F01F5F01C00B7F04C09C
:100BAA000E94C4080E94DA0800FD11C0151778F4E3
:100BBA0007FF08C002FF04C00B7F242F115001C099
:100BCA0020E301C020E20E94BD085150EFCF312F2F
:100BDA0001FF17C03030A1F003FF06C0EE81FF818C
:100BEA002591EE83FF8305C0AE81BF812D91AE832F
:100BFA00BF830E94BD08503009F051503150EACFEE
:100C0A004BC020E3EE81FF810E941609E887F9872D
:100C1A00EE81FF813296EE83FF83E885F985AA8506
:100C2A00BB85AE17BF0750F02F5FA885B985EA8547
:100C3A00FB85EA1BFB0BEA87FB87EFCF2A3328F0F9
:100C4A0003FF02C0295F01C0295D04FD1AC02133D8
:100C5A0020F4A885B985119709F409C0531710F033
:100C6A0000FF01C013C020E207FF0BC020E30061B0
:100C7A0002FF07C00B7F4A930E94CA08503009F04E
:100C8A0051500E94BD08503009F051503150A8858A
:100C9A00B985129708F0B5CF00FF08C0503031F07F
:100CAA005150E0E2EA930E94CA08F8CF10E0E0CE81
:100CBA00AC85BD850E9412090E9426096496089592
:100CCA00FF92F82E26970E9421090E94E208309787
:100CDA0019F4EFEFFFEF1DC0DE0116960E940A0914
:100CEA008D010E94E208EE83FF83E0E0E887E9874E
:100CFA00DE011A960E94E908E9EFF4E0FA93EA9312
:100D0A00DE011A96A9DE9F01AE81BF81E0E0EC9375
:100D1A00F9010E9428092A96FF900895FF92F82E59
:100D2A0026971A930A93DE0114960E940A098D01E6
:100D3A00E0E0EC83ED83EE83EF83DE0118960E94F8
:100D4A00E908EFEEF4E0FA93EA93DE01189684DEFE
:100D5A00198108812896FF900895BA93AA93A991B8
:100D6A00B991EE27FF276D91662311F03196FBCFDB
:100D7A000895BA93AA93AA27BB27E991F9910590F6
:100D8A00002011F01196FBCFFD010895BA93AA93A2
:100D9A00BB81AA816C91662361F0F981E881C895CB
:100DAA00002029F031966015D1F7FD0104C0119693
:100DBA00F1CFEE27FF270C940C07BA93AA93AA81C6
:100DCA00BB81CD01E881F9817191772311F4FC018E
:100DDA0009C06D916717C1F30196DC01662391F78B
:100DEA00EE27FF270C940C07BA93AA93BB81AA811A
:100DFA00882799276D91662349F0F981E881059042
:100E0A00002021F06015D9F70196F4CFFC01249651
:100E1A0008950E941408EC81FD81309779F4E091DD
:100E2A00EA02F091EB02309719F4E0E0F0E02FC00B
:100E3A00E091EA02F091EB02EC83FD830E9419082B
:100E4A000E94F906AC81BD81EA0FFB1FEC83FD838A
:100E5A00AC81BD81EC91E03041F4E0E0E093EA023C
:100E6A00E093EB02E0E0F0E012C00E9419080E9451
:100E7A00CB068F01309729F0D8010F5F1F4FE0E0B2
:100E8A00EC930093EA021093EB02EC81FD81198145
:100E9A00088126960895AA93E881E07111F0AC9A28
:100EAA0001C0AC98E881E07211F0AB9A01C0AB982E
:100EBA00E881E07411F0AA9A01C0AA98E881E07862
:100ECA0011F0A99A01C0A99882E18A95F1F7AD9A21
:100EDA0082E18A95F1F7AD9882E18A95F1F78AC0A5
:100EEA00AA93A881D8DFE881E295E883A881D3DFB5
:100EFA0088EB8A95F1F77EC0AA93E881F0E0E45185
:100F0A00FD4FE081A981AE0FEBDFE981E093F002AA
:100F1A00E881E093F10222960895A2E00E94F20885
:100F2A00ACE0DEDFA1E00E94F208E0E0E093F1022B
:100F3A00E093F0020895AA93A881AA3031F0E091D3
:100F4A00F202A091F002AE1760F0E0E0EA93A091FD
:100F5A00F102AF5FA093F102CFDFA881AA3009F4B2
:100F6A0049C0E091F002EF5FE093F002AF9AA881E6
:100F7A00B7DFAF983FC0BA93AA931A93A981BA81EF
:100F8A00ED91A983BA831E2FE03019F0A12FD3DF88
:100F9A00F5CF188123960895AA93A49AA39AA29AA0
:100FAA00A19AA59AA79AA69AAD98AF98AE98E88101
:100FBA00E093F202E058E093EE02E881E054E09315
:100FCA00EF02A4E1B0E00E9400090E94F8080E9422
:100FDA00F8080E94F808A0E25EDF84E191E0019738
:100FEA00F1F7A8E27DDFA4E07BDFA5E879DFA6E0E0
:100FFA0077DF93DF21960895FA93EA9380E00E94BF
:10100A0093062296A8EEB3E00C9400096627772788
:10101A000E941A0984E00E94930626960895BA93BC
:10102A00AA931A930A930895EC81FD81FA93EA939D
:10103A00AC81BD8108950F01A3E8B2E0A00FB11FF2
:10104A00EC91D001EC930895FA93EA93A4E5B0E009
:10105A000E940E07AF0108955A934A93A0E6B2E0A0
:10106A000E947101E03008955A934A93A1E7B2E0D1
:10107A000E947101E03008955A934A93A4E7B2E0BE
:10108A000E947101E03008955A934A93A5E6B2E0AE
:10109A000E947101E03008955A934A93A9E6B2E09A
:1010AA000E947101E03008955A934A93ABE7B2E087
:1010BA000E947101E03008955A934A93A8E7B2E07A
:1010CA000E947101E03008955A934A93ADE6B2E066
:1010DA000E947101E0300895AFE7B2E0ED91FD9111
:1010EA003196FE93EE930895A0917F02B09180020B
:1010FA000895A1E8B2E0ED91FD913196FE93EE9349
:10110A000895E0E0EA93A0E00C9481070E94C007EA
:10111A00E0E0EA93A1E00C9481070E9400090E9492
:10112A009207EFCFEA93A1E00C948107ECE0EA93EF
:10113A00A0E00C948107E1E0E0935C02E9EFF1E0C2
:10114A00FA93EA930895FA93EA9380E00E94650677
:10115A002496EBEEF1E0FA93EA93A9EFB1E00E944C
:10116A005601BACFED91FD913196FE93EE93089513
:10117A002A93AD85BE85EF85F88909950895E88992
:10118A00F9893497E88BF98B0895AD85BE85EF858B
:10119A00F88909950895A889B98914960E941209AF
:1011AA00EE83FF83AE81BF810895A889B989149619
:1011BA000E941209EA87FB870895DE011C960E94A5
:1011CA000A090E94120908950E940A090E94120936
:1011DA00FA93EA931A930A9308950E947507A3E073
:1011EA00B0E00C940009A0E30E94500784E191E06A
:1011FA000197F1F70895109639F08DEC9AE001976E
:10120A00F1F7A8951197C9F708950024AF0DB01DFD
:10121A000895F195E195F0400895ED91FC911197AB
:10122A0008950590F491E02D08957A936A93FA93BC
:10123A00EA9308955A934A933A932A931A930A93EC
:10124A0008955D814C813B812A8119810881089525
:00000001FF
